:1000000071C0000086C0000084C0000082C00000F3
:1000100080C000007EC000007CC000007AC00000EC
:1000200078C0000076C0000074C0000072C00000FC
:1000300070C000006EC000006CC000006AC000000C
:1000400068C0000066C0000064C0000062C000001C
:1000500060C000005EC000005CC000005AC000002C
:1000600058C0000056C0000054C0000052C000003C
:1000700050C000004EC000004CC000004AC000004C
:1000800048C0000046C0000044C0000042C000005C
:1000900040C000003EC000003CC000003AC000006C
:1000A00038C0000036C0000034C0000032C000007C
:1000B00030C000002EC000002CC000002AC000008C
:1000C00028C0000026C0000024C0000022C000009C
:1000D00020C000001EC000001CC000001AC00000AC
:1000E00018C0000011241FBECFEFD1E2DEBFCDBF8C
:1000F00000E00CBF12E0A0E0B2E0E6ECF7E000E0C8
:100100000BBF02C007900D92A039B107D9F78DD26D
:1001100058C376CF88B98BB18F778BB984B38D7F75
:1001200084BB84B38B7F84BB000084B3846084BBB6
:10013000089588B992B98BB180688BB984B38D7FEB
:1001400084BB84B38B7F84BB000084B3846084BB96
:10015000089589E2DFCF089581E1DCCF089583B36C
:10016000876083BB8AB180688AB981B18FEF81B91A
:1001700097B187B984B3846084BB84B3826084BB45
:100180008BB180688BB984B38E7F84BB2FEF89E6F7
:1001900098E1215080409040E1F700C0000084B316
:1001A000816084BB2FEF89E698E121508040904028
:1001B000E1F700C00000D0DFCCDF86E3ABDF88E2F0
:1001C00090E0B7DF8AE3A6DF85E590E0B2CF08953F
:1001D0008CE2A0CF08950F931F93CF93DF938C01F0
:1001E000EB018AE297DF812F90E0A3DFC801992716
:1001F000A0DF8D2F90E09DDFCE0199279ADFDF9160
:10020000CF911F910F9108950F931F93CF93DF9379
:100210008C01EB018BE27EDF812F90E08ADFC80149
:10022000992787DF8D2F90E084DFCE01992781DF2A
:10023000DF91CF911F910F9108956F927F928F92CE
:100240009F92AF92BF92CF92DF92EF92FF920F9365
:10025000CF93DF93EB014A015901BC01640F751F75
:10026000615071093E01620E731E21E0621A71082D
:10027000B2DFB301CE01C8DFABDF80E0902F990F72
:10028000990F990FCE2DCF7320E2C29FE001112468
:10029000C82BD92B8C2D8F71C82B9401D5016ED210
:1002A00004C0CE0146DFC701B6016B017C0121E02D
:1002B000C21AD108E108F108672B682B692B89F76E
:1002C000DF91CF910F91FF90EF90DF90CF90BF9093
:1002D000AF909F908F907F906F900895CF92EF9204
:1002E0000F93C12CE12C0FE1A8DF0F91EF90CF907D
:1002F0000895CF92DF92EF92FF920F931F93CF93C7
:10030000DF93CDB7DEB7CC58D1090FB6F894DEBF76
:100310000FBECDBF6C017B018A018CE8E4E0F2E006
:10032000DE01119601900D928A95E1F7CA01880FBE
:10033000991FFC01EE0FFF1FEE0FFF1FEE0FFF1FB7
:10034000E81BF90B81E090E08C0F9D1FE80FF91F6F
:1003500080819181892B39F02AE030E048E250E039
:10036000C6010A96BBDFC801880F991FFC01EE0F7A
:10037000FF1FEE0FFF1FEE0FFF1FE81BF90B81E0C1
:1003800090E08C0F9D1FE80FF91F82819381892BCC
:1003900051F028E230E04AE050E0B701665F7F4F5D
:1003A000C601C2969BDFC801880F991FFC01EE0FA2
:1003B000FF1FEE0FFF1FEE0FFF1FE81BF90B81E081
:1003C00090E08C0F9D1FE80FF91F84819581892B88
:1003D00051F028E230E04AE050E0B701645C7F4F22
:1003E000C601C2967BDFC801880F991FFC01EE0F82
:1003F000FF1FEE0FFF1FEE0FFF1FE81BF90B81E041
:1004000090E08C0F9D1FE80FF91F86819781892B43
:1004100051F02AE030E048E250E0B7016C597F4FDC
:10042000C6010A965BDFC801880F991FFC01EE0F19
:10043000FF1FEE0FFF1FEE0FFF1FE81BF90B81E000
:1004400090E08C0F9D1FE80FF91F80859185892B07
:1004500049F028E230E04AE050E0B701645C7F4FA9
:10046000C6013CDFC801880F991FFC01EE0FFF1F7A
:10047000EE0FFF1FEE0FFF1FE81BF90B81E090E06E
:100480008C0F9D1FE80FF91F82859385892B49F0FA
:1004900028E230E04AE050E0B701665F7F4FC601D6
:1004A0001DDF000F111FF801EE0FFF1FEE0FFF1FE2
:1004B000EE0FFF1FE01BF10B81E090E08C0F9D1F02
:1004C000E80FF91F84859585892B51F0B7016E5C83
:1004D0007F4F2AE030E048E250E0C6010A96FEDE97
:1004E000C457DF4F0FB6F894DEBF0FBECDBFDF910C
:1004F000CF911F910F91FF90EF90DF90CF900895D3
:10050000AF92BF92CF92EF920F93CF93DF935C01A4
:10051000EB016C5E7F4FC12CE12C0FE12AE030E053
:100520004AE050E08ADEBE01645C7F4F2AE030E0A2
:100530004AE050E0C50181DEDF91CF910F91EF904D
:10054000CF90BF90AF900895CF92EF920F93CF933B
:10055000DF93EC010F2EFFE1CF2EF02D0F2EFFE3E6
:10056000EF2EF02D0FE120EF30E040E451E060E0AD
:1005700070E080E090E061DE488150E04053510936
:100580006CE370E084E190E0B4DE498150E04053D8
:1005900051096CE370E08AE590E0ABDE6CE370E05B
:1005A00080EA90E0ADDF4B8150E0405351096CE3AD
:1005B00070E084EB90E09DDE4C8150E040535109A7
:1005C0006CE370E08AEF90E094DEDF91CF910F91C1
:1005D000EF90CF900895909303028093020270935E
:1005E0000102609300020895FC0180910202909143
:1005F00003022AE030E0B901AED0605D60838091F3
:10060000020290910302B901A6D0805D81838AE342
:1006100082838091000290910102B9019CD0605DBB
:100620006383805D848315820895CF93DF9300D028
:1006300000D0CDB7DEB70DD018D091DDCE01019638
:10064000D3DFCE01019680DF1CD08823E9F323D0CD
:10065000FBCF1092C50087E68093C40088E18093A9
:10066000C10086E08093C20008951092CD0087E615
:100670008093CC0088E18093C90086E08093CA0013
:1006800008958091C80080780895FBDF8823E9F3FE
:100690008091CE0008950F931F93CF93DF93CDB732
:1006A000DEB72C970FB6F894DEBF0FBECDBF00E0CB
:1006B00010E00AC0EADFE1E0F0E0EC0FFD1FE00F20
:1006C000F11F80830F5F1F4F053011059CF38B8155
:1006D0008A33B1F5298130E020533109C901880FEF
:1006E000991F220F331F220F331F220F331F280F92
:1006F000391F8A8190E0C097820F931F2C8130E0D0
:1007000020533109B901660F771F220F331F220FC3
:10071000331F220F331F260F371F6D8170E0605388
:100720007109620F731F8831910550F46C337105A4
:1007300038F451DFCE01079657DFCE01079604DF6C
:100740002C960FB6F894DEBF0FBECDBFDF91CF91D0
:100750001F910F91089597FB072E16F4009406D071
:1007600077FD08D01AD007FC05D03EF4909581950E
:100770009F4F0895709561957F4F0895A29FB00196
:10078000B39FC001A39F700D811D1124911DB29FC5
:10079000700D811D1124911D0895AA1BBB1B51E1F1
:1007A00007C0AA1FBB1FA617B70710F0A61BB70BE1
:1007B000881F991F5A95A9F780959095BC01CD0186
:0607C0000895F894FFCF3C
:1007C6001E000800010001000100010001000100F7
:1007D6000000000001000100000000000000000011
:1007E60001000100000001000100000001000100FD
:1007F60001000100010000000000010000000100EE
:1008060001000000000001000100010000000100DD
:1008160001000000010001000100000001000100CC
:1008260001000100010001000100010000000000BC
:1008360000000000010001000100010001000100AC
:10084600010001000100010001000000010001009B
:00000001FF
