:1000000071C0000079C0000077C0000075C000001A
:1000100073C0000071C000006FC000006DC0000020
:100020006BC0000069C0000067C0000065C0000030
:1000300063C0000061C000005FC000005DC0000040
:100040005BC0000059C0000057C0000055C0000050
:1000500053C0000051C000004FC000004DC0000060
:100060004BC0000049C0000047C0000045C0000070
:1000700043C0000041C000003FC000003DC0000080
:100080003BC0000039C0000037C0000035C0000090
:1000900033C0000031C000002FC000002DC00000A0
:1000A0002BC0000029C0000027C0000025C00000B0
:1000B00023C0000021C000001FC000001DC00000C0
:1000C0001BC0000019C0000017C0000015C00000D0
:1000D00013C0000011C000000FC000000DC00000E0
:1000E0000BC0000011241FBECFEFD1E2DEBFCDBF99
:1000F00000E00CBF2FD154C183CF88B98BB18F776B
:100100008BB984B38D7F84BB84B38B7F84BB0000A9
:1001100084B3846084BB0000089592B988B98BB120
:1001200080688BB984B38D7F84BB84B38B7F84BBA1
:10013000000084B3846084BB0000089588E2DDCFB2
:10014000089589E2DACF089581E1D7CF0895CF935A
:10015000C82F86E3D2DF8C2F90E0DFDFCF910895A8
:10016000CF93C82F8AE3C9DF8C2F90E0D6DFCF91E1
:10017000089583B3876083BB8AB180688AB98FEFA3
:1001800081B987B984B3876084BB8BB180688BB930
:1001900084B38E7F84BB2FEF89E698E121508040A5
:1001A0009040E1F700C0000084B3816084BB2FEF72
:1001B00088E596E0215080409040E1F700C00000C3
:1001C000C3DFBFDF88E0C3DF85E0CACF08958CE2DC
:1001D00094CF089590E0982F8827990F990F990F41
:1001E00020E2629FB0011124862B972B842B95CFA0
:1001F00008950F931F93CF93DF93082FD92F162FB6
:10020000C72F8AE27ADF8D2F90E087DF802F9D2F26
:1002100084DF8C2F90E081DF812F9C2F7EDFDF91A8
:10022000CF911F910F9108950F931F93CF93DF9359
:10023000082FD92F162FC72F8BE25FDF8D2F90E06D
:100240006CDF802F9D2F69DF8C2F90E066DF812F80
:100250009C2F63DFDF91CF911F910F9108954F92F3
:100260005F926F927F92AF92BF92CF92EF920F9375
:10027000CF93DF933B015A01E901BC01640F751F65
:10028000D3DFB3016C0F7D1FC301B3DFA0DF412CAF
:10029000512C320109C04C2D6E2D802F9BDF8FEF2A
:1002A000481A580A680A780A95012F5F3F4FDE0105
:1002B000119667D0461657066806790660F3DF91F7
:1002C000CF910F91EF90CF90BF90AF907F906F90B4
:1002D0005F904F900895CF92EF920F930F2EFFE112
:1002E000CF2EF02D0F2EFFE3EF2EF02D0FE120EF9C
:1002F00030E040E451E060E070E080E090E0AFDFAB
:10030000C12CE12C24E630E044E650E06CE870E0DB
:1003100080E090E0A4DF24E630E044E650E060E0D6
:1003200070E080E090E09BDF24E630E044EB50E0BA
:1003300060E070E08CE890E092DF24E630E044EB8F
:1003400050E06CE870E08CE890E089DF0F91EF906E
:10035000CF9008950EDFBFDFF4DE2FEF87EA91E63E
:10036000215080409040E1F700C00000E7DE2FEF11
:1003700083ED90E3215080409040E1F700C0000001
:10038000EBCFA29FB001B39FC001A39F700D811D51
:100390001124911DB29F700D811D1124911D08958E
:0403A000F894FFCFFF
:00000001FF
